/*
This file is part of web3.js.

web3.js is free software: you can redistribute it and/or modify
it under the terms of the GNU Lesser General Public License as published by
the Free Software Foundation, either version 3 of the License, or
(at your option) any later version.

web3.js is distributed in the hope that it will be useful,
but WITHOUT ANY WARRANTY; without even the implied warranty of
MERCHANTABILITY or FITNESS FOR A PARTICULAR PURPOSE.  See the
GNU Lesser General Public License for more details.

You should have received a copy of the GNU Lesser General Public License
along with web3.js.  If not, see <http://www.gnu.org/licenses/>.
*/
import {
	HexStringBytes,
	SignedTransactionInfoAPI,
	Transaction,
	TransactionSignedAPI,
	FMT_BYTES,
	FMT_NUMBER,
} from '@theqrl/web3-types';
import { decodeSignedTransaction } from '../../../../src/utils/decode_signed_transaction';

const rawType0x2Transaction: Transaction = {
	from: '0x6E599DA0bfF7A6598AC1224E4985430Bf16458a4',
	type: '0x2',
	nonce: '0x0',
	maxFeePerGas: '0x3b9aca01',
	maxPriorityFeePerGas: '0x0',
	gasLimit: '0x5208',
	value: '0x1',
	input: '0x',
	to: '0x0000000000000000000000000000000000000000',
	accessList: [
		{
			address: '0xde0b295669a9fd93d5f28d9ec85e40f4cb697bae',
			storageKeys: [
				'0x0000000000000000000000000000000000000000000000000000000000000003',
				'0x0000000000000000000000000000000000000000000000000000000000000007',
			],
		},
		{
			address: '0xbb9bc244d798123fde783fcc1c72d3bb8c189413',
			storageKeys: [],
		},
	],
};
const signedType0x2Transaction: Transaction = {
	...rawType0x2Transaction,
	publicKey: '0x062e7dd34fad829dcf4490dd942cbb458ec485195659a83d37bdaff129cbc1d0f491e826f0cbd6bf283c2d37f84b0e7e9893750f18e80b781247e66317bd242617acf66e5bcf25b7d2f2834adc1af4dfd1d8a21a7acb44394122bfd1ec107b0f188af8aed6f948a551e7e9bfd547861bcade6f057c6b26e6424aa2012b473d8cf72b85294325983c2e2220f9d8aa4331edccd927f6db30d26a94be0ef426052c6eaaf7e904f5d1c1f52e1ddd3af1af9b8e60622406e11e4b15705de0636f8ab2287c848f3a9a0caa025fbddcd8719214c862a262878b14a2c246a5ab9aff3154a921abdcb1f479ef97cd19e051837f9a43e4bac9f03389b6d0d7bae7f710cef457e1e57b3822c8be46abebabc3bb6fe575f4c2bdc2321ab8ecd6c232dfd5891c8310ce2506bbe9b81a8c0978b9fee83c5b7a592e6890b17d18232716991c7c3e7c2717d41fee13e791805ee4679e6d3aae2087ddc22bdd8e9646bcfd6b9f2ff6a69d0f20ab618b0f0d3f80e78bcdc07d9616f00682c382fefa263ff0b9c15c7cf99157926bd55c3d9027fd53c384df40e9531c286ba480f7f2814fb98d69749abfba497ecd336470c3098db5d1b1a6e1a5bcf993a36810f3281bb2f651edb434262ded208f5424b057b86f2c1b2fbc51a41324737a23bdaa98c5a98cbbf50e543d2016248faa4013dd3056409d70f972169b1376dd193e968ddeefb27a62c057a97620c353353b3e6bc6f95008b4cb0c084868fe20dd0825124986bc2cad3b0e9ab47ccd5e1dd2ccc349b3a31ad027014995c8d561926b7749c1024a6751d847e4b913d438e723b4595e8ba89a791baff2bfad70124cc98463b6d0a15c065962e14e5c294b7bf5ae7ba4afad4cdcd56d89a9657ef5275d37651f91b74669b7e93a43af36c82f17ae30eb49196b2454509aafed90f28219142a5dbc16ea2a206afae45aa468f978c1413cf49f17ca2a91659c103264e1169b6b58c037b083c3bfd0974805f04fc66198d8b6460d488fc32832a3dbbfc71e738ed4eeabda2b66ceb626aa7c76b241444d16525ec19646b4dd08d39ab2e2775aee452c8a744c6b26ef16528bb0640b90208e92d54579d4af968ffaa8444abef059a063b5b24e2a920dcffe4538fd9e2f853f1f551c4eefa2b30a99c97e95a21966a9624445535822dac7bc7ca97d51112a6240a06355a019a2c695ecd65f9a9a847093213cdbd9fb69e4abcab934b7aceb3df263515add8938fed58cd4efbdcb148e3abdb6e1bf2278da0c73a1cde801d6f5115a795a879eabbcb5031af27a53801fa1af6d82d3a2bae1481462a5f242ed347830be6ba23e05d7f631ff11830b1e3055979d13362f51e854fa3679b5625641f72b940d79f0fabb7a2ff21fbf2eb378f32d07089b54aabbff1d6e8348b5328636caa1f5b6fd337ba5e52958fd79443f5eed46ef6b4b01fa1503b00bc1b25debcb2b76e24b673f57cebbbc351fe426af24c547e6522ff3cc9e32c3e26432cfd11b8ace56a1de760833437bd0a1456d391a869194133c64b51cab8eaf8a58bd9714cdd1b16d9b48e6d83d29a2f4ef5d87a077f464a781f045335af82d6fee18f3a86a01f12695c17c828a1114df7d92d6c87ddd06aa7ba1ac652d840ccaca57622702bd4637c31e2673f265df8fa7939d1445899eb482a4a16930efd79d698a2ec2be63d267d9045886791942cc4e8927463ddd7ae263b4b43aea9d89d7725d66b89343c4ac308a1b904d00c7494d0d44aa69f95882b3e8aa8115f7fc7ba03433c53190b6fac15bf5ec339616943f739c4ec93605d782f9505159cc6b61ab71bb8939866c5de4df7295a7bb8ce96a45d15c903c7921eddaeed496f51c2a37de06d9f803edccecb0077f9db87188807b107996d3acd45c6326a9aaaa6884da215c5eecb6b9c926687fe72f6e95527b382e6a3cbc6873773c2a98e643b74783b202cbdcfc23a21d152bb46e02d982f42c666b1dbe37e673bed4cfd8b97caf0d7fc65d4c4398f89cf094083fe0d6fc3773b8c7b4a54d58ee1d67efcbd5f89ab5870a345f218f5dad874cb7f4e03c709f419f9e29faaaa51bc96442315c96f852eae9b7c3e2b0e56f0a84b0386db811febb3a382602ee16d807758e220a2ea19c06e43f1860c8e41f1c2c3131479bca74842e8dca6d26206f35e35b3f4fe94aace6d41f60cd487e0fdec17b8bad6935e1c86574d674e9de9b7d1630131a51c1d3c1932904bbbe53359ec91d60302729b42f7e04a697f6d268966d0c5239e9a06345526bc30d388bc35384fc1d97a0656b2537dccde2cf98a99c89a5e2afdc9edf5520e71db10fd0989bb154da392304a4dd71979d0153ea8eecc0b541cbdeabf71e2c174de7c241a71362a7bcb2d7492e2298a4242c7abea53d3e6d61297c21fb0ccdf3628c18c7338e6f9feece9946736086aa1b2208d720179c907cb967e09ff0d86d904751234646b6bbdd8f191ae037bbbf2a139b1bee78049973aec10145ae5b017e00f397d1e4519a0a49992645b04ee9d8c4f00459d227f8bebbca33d0f20ba65e1cb66abe7cbf674e46f13b981ba9a5dcb488bcb799470049889b0bfd9c8f752ec4adcb3db9af195b8151cf9ea0185a925abd65186cb437981c73bf1243270501742b0187acbcc993f3345f3b2459ba19de74173eff671e3d7ec9a0b902b85476d38c49ef8634e2221e76d7e750907ffe2d685658c63901dfdad3acd8d52844241b24393e60b93c59531a9950284a9971f398750d1afbbc67e15b9a188451d515bbfa053e01ec063e7d8298537a7b03851140bf2dc85d4b14a078a0cc6fd1c42a4ad9df3bf139d14ef955c6dfc49f7ffe5f77be16b41dd5c4925bbcd3dacb708c800fe3e345e07b6d94c3dca306ef97c2e167fdcca0bcbb2350ec1b7533e808bac097a6f9e6e3268bd0525f591e86a9d1b2047dd768b92c65b0cecd84e1aa3a3618791908c6278175f13d8739cf21281b12b559c70a65524cc566f797ed9355edb2ca5bcb9d93e24b99a6824f995b50c88fa7e661a95f230fc991f80d976d97e72c7eee78f66cb87e01a3c95412babd0993d9b177aceb01faecfa7ceb2665592c516e582879eeb78d0fd561dfd1c0377d195ce5c4fa3def8d51e447092aee2a5ec6afc877636766713c8a8ee1ef631539d25bd1e7a7bd6603ba0390248353152eeced6c2fba95b3de56fcdedf0dbfe11e7056902cd7c823c46411cd4f5ea11182629c01b826beb13a171678d6c5be7cbbe5d5b51f05d2b42aa590ee0b75bed2a9e7a1db7f53ce2b4e4c6c519ce34946111046d0737c1267fed21a22742b67d1c6305402ae2d965cc3a8f3b82159279416103f5aff30803c8aebfb419d45cee7e8ad4cde19452e75fa7b04a9c59444926dd53722ac2d23c3fc559ef900775d51066def4eb104f4be6bf26aa25c5a50dd5f3a6a692f04c307519efa99aba527b743c29dc4ce805095db5ec889ceb4b66206feec5aac63c35d7ab11fc9d527c8c6101c7087d320518b57df09b8609a333200c2714e4abca12cf55b6841a6f8066d7787d61c39440a9b620bb9740b4e5d3d28909410bfbe0b2138cc1f55b883560d3c5022c21fdea9935406d56e28256f91ed6b09e6f163b50bae27636bad37bbf8b005913911e28e998a13c05c3d3412307c89b834e0',
	signature: '0x2bdf3a3b092c410d35e5b6ae6e1e094117485133167a93b79ed26b0c3b35c9cda108e181391307b80f9503ae7f864e9eacee3a8ffb4ac7f8da73ed1c09dd76d060c736cfc6d60cab02a148b3abb5465ad027b55f6f6ca4d573d14c070a8e89df3a41a370f934984e5835d10bb5a1e7fee22428bfa104fbac1d0be6faf2b862129d1db10fad767fbc21faf5d36da896be15de7c0537bda571ec154424ca2d540a035f1030d59368aecec0bfe86d366c8da7104be7c0c5412ccf291cc75830504575e9dda5642e02f453acfc1904463d69e73e405d3825e83a3d7e8d57eb7422d6393d4c1f2af4b51395e6b61378ddee4805d6799173beaa0746ecee7a6680380514e9791c6eb2a16bae8459fd419ac605cafb7a81ce97352684de05264a46fe916392931c817a09d2f7e6b7e3d80fd7d71533129c4bb56bbda9282d2107fee05c90cc81fd7f8db70c5cc067c4d2419e7e2fd5f17bafd0ff0468056c33ceb4f0e3fec66ea2ccd202afa332da0c2659fbf2a021350853d109917469376afdcf889ff113671b0fdfec7ef15986f30c9fb7e9ecee9ab022bdfeb745a10b7c1c5424b5c65b50cb328c453c616118648561e3fdf507d0c98db8e745d3bced2df1c326639c1ab89ec38c03d4e5c0c8035874ac891e7eba8799862a7f47c43f184d3b50f560d9631215e4b58fb60f4f008a915e59d328c5c78facd235acbd5d9cba92e47fdb2d5c916df39e55c5c9497a05698697b92584a006288814ea1b685b3f93e8b0c6e1a82248e0b9776f040ab9bf8d1e3db17f94194e1169c0d98903d7ceb5132f412a859e000fbdfcac2169f78ba7ddf54634a413a33150930076b500cf6ce116727976b4921250cde1a1d6fe5c65520c0fdea3221d22fd5a1af7e068f28a95c3defd4f7afa1bbd864be16da151c9a63849278efce723328a6dcaec26b7dedd48ccbf393cf4f4d074bbea7d13bf48a084f6ee0a15177691c8c414eb0f9b6a9ed8463f7a2fde523329f8e8bc5bc87faf6c6fbac3ead788245ea2ea59f54961ef626c25f9411c7c4bc3531a56e23ea5eec6e88a1d4d129f19c8409795d7db1d4f91600ed3b6fc863d438968af8c11772f39085e9bd3a1d43f37993f12e5c570332e49415aaf9023d754247177071a76de77960055844aee8090946773cb77309528698f187b8fa192156c2ff8263f91287b8673e2323a07282a92daac3a791b0a891ee59b93627772e2569a31431c88d02e93535b5b434ec151aa4ade43ecd1934a6674c0a359b613c1d22002c3f596bd875c3ab1a03c48f52e7f80a6e110fa86331c40c55e8d0226d6d60219601bf88c830c2ced22d85012d8a567c73163cfa8de93d9b5f63b53099dfbb810db0e95b1917907fa350f8fe9f62aed5c605ce02d6adee338a7f05a8c6b8fa861dbdf83de5e84aa21c4464e3bf2053bf989a4977d5bed2bd2b4b7dcd927a8da18f303be1e6cf751f4391064e66bb468adfc916aaab1021fd55c9199b4ccf42ab966e5b6cc069dae16e3c6fc133d3ad114d62257f1795232da9fd96339da2d97e200f5a744e05b93a591cf43447d0efece5b0855a1276ca9f26c275281e0c98940026536776756eb7f4bdafb489dbd9129365e3625e942ff58a69bee2922d593089120866e03b0624d7561e5330835302680e0a21cb33f268f23d3c567a2c1e9f1379d5cb3d5485efc7669e607697e729a7f49af88069b9da3b1cc956d8df1007cfbc3e6b5f8e7205110368c5623aa42eba6aebb445596b8ba010aa1f92566293ee2db09599356a501a5b3413e620a4d1d2598f65588955743a0310ece1a3e2b18cf0c6319bc5ff391d7872f820f2b34a769dc3e72a3c39c8612d44fb4a7e601c2d99b867f3d4529222030322a9e2a67d537e8ea65e5cf1d23f784bcbea686b5fe894f35da0eec091eaa318a92afd006ec13f7e07a202bee70b65d298f306cde6906399be617bcd2e363d1a30605b415aced479a0bc4f06a4c21314e9b333d167c4f74899de33b10b3ced824d91c3349b1f454235deb77e5223eac3fa6ca92f6403609eadff7b2cbe68b6f0c351096b9f34470f4ffb8eeae927041281330a0fcab274193dde2cda961215d0c53f7849d1ceb0e5106c6031b92b7d70a228edcc81ce6de6dcb2ae03384d0b3599be7082b60ffdad361c38bc5f0e80653d0bbc1f8d2bf085f81a55e338130117a9510b05c1cfc7c4b5825224253312c18e8f889d8beea6bf9b591f2e988da32ed9915b038437e913fa8d484d7a3a2f5c36152217fbf65e504dd73557dad34186d9f27a2b0d19d591c111f6a6b0af579116447457ec0e0cdb1952567437181e9b728176b11df5302bd406b9bebc659c84913964a942b8c7c9cc089aa0bfb50fcc8d7c544a6fcb92e760a247225337eff7de92636be0a00bfa153527e40d70f2832844a2749767ebb5c6850f15f257f8fd0bac4f22fbbe22b5573d2737498c51d1d04284f367168daad66ed80711d339c0d74cb0a7244e512d8beaef382731ea6bd563cf46f892e4acad34475a69c605603efff6e0b21fd9012a5834120e21aea96354a5a13f8813fd301610c6d09998683db8f2e7e64ffdb227a2c7bdc718476d542f7a104221e70bed48dd16cbfef95123a459ed0427af059c9c473d7997c0749e60a8630df4a522dd2ea9a45a2d4ba9a0d1593e48d94ce9f61a9683dedb3980634d77371bfde51bac69105086665a4f5b2fbdb57414558f1294ddefb0ac540fc609cdda832c5d5b208bb227c542e29cb4f62584f86e52584dec81ef3c1d539fd8a0bb6ca689fff647b45fe45e5a93b6d2d5defbec2ffee425ca7e9decbea13cfc769ee9dfc51383235623136e385406e23326eaf44575c908431548b1a3eb38ef936cb2dd2734cf7273774263f0000304e579f6a14b8775230898f749a790e4d2fa9105bbe59e54977825bb3f9772881ef6ed3d4821d9daf170c6bfe1f8be8465b03c21607e6786a8cf0004a6af48f068e86307dc331b3032d6d1363c829b5d2c99879d70907f1624e387cf7328f229ba63cfe8fc8cba1c3006aa55de9219a1acb66ad090211804bf90c4a3f9f55e45d7bbc1fbab4b8b7b2395b63288e079f74eea46a5b9fe50e5477caf39399535cca427f0570d069cc779ab8841ab3e801cf93ec2cf361feb8e82f336dc127ecad4a6558f5a5584ea8afd40dc722234bb898a30b6be3b85b0613aff47e2f6750537541ed5c83c833ec497349eb243f7d505647df15a2357cc1044a2786c0d6d98deacce9d213d1188365617fa50255683c5485edbb4de4c9614a3d5aaf4d0c5f6c4b33e534a7c068d6462fb43d6b9e91ed0d7193d1d6b99d0a7b38cbccd6cd9a9c813cd26ef721110b7b69c918e0866880a206e7c87fe7ae24b48ee8b23f856ba13c8dede2987ce33b9ceef7c63b2b264cd57310d3f65877955bc72cac01dbc21426a0f7aa96abf8331f7ca304b3ac08768d52be186683b799b9468b2958db55eb9352d180195bf58c7a4832d3a27da029ce1c27f81516313c743367d05f0a35456f6c4fa074aeb9ac36af2c84c57b3951daf63afb9928b3e8298843cb0b5197722ce238abbcc12f8b3b88a101ec94b0612213a1b261794ed52e6fa5c28443e2f16bdaf5f4c1888aae2b5ac77f937a23422c827b290c80f907a4f63ba939adf3e3659446fe057bbb856f570345fdb31294f025d7749b810316d1c9e0974d6257e76b4f5bbe0e342f0db4b8890b2f6a3b510852cd4be80fb09a55faee3878eda0ac441ea2cfe4f341334c038040f7c12d542ef89e199f258fce93a6bf0d65e54622f650ac00a51691b58c7823018f65028814aec18bb1024424fb092cd55a9f932309bc81fb8c294bcbd1df0387ef0cca234f2bf18e6be2d1583bc23ec30411dbfadbfdab699d23b2bd13d7c26df354f19dfc31a6ae31360c408a6910808852b57f6a53f5b12e046ccb1f791683110a7c56bb2676c0512c96aaf567dac420bb2006961a8dd9be4692029f971a13547eb8e3c648f5464bb5e994e3b449a16238fb89b2c91fc330db1abb2373705b6b94a54a68260d45636ccb3e7774f142dbe3d80b6d30ef6f3c9c0d84da5dc6b032f1c708a4caff2bf2863692cacb7ef155d59dd571b787af20c16eb8112051a1756c4f9aaf6bd38246305c146ed89b8c6c9b2b399b7fcb7fe28d38e344111cf1fea2116a852612ee884b69a0778e8b28b42210b9070db3ee21965142263fe063ba3166e6582c3bcd215bd6c2ce0b8f99bb23d2bfb5b897020e448b89aebc84cfcfa545c681a72b086b0f1d69c88a59204ed9a0b93f4ee7b72dc07705bc06b32730842571482f9f84ea7aa7d9cb7099e284be804c595194cb9e1e7213490542ec033df73b829c4955b4271f1851ed68766716fad25d513e9fa3ab080198297c0bf9efcc1bedbfcb5960b32af069c40d7d25d4d83830c53834d295f225c1d44cd89b720fd18686332dd65c9d282a68553c31dfe8b569842ec79a96aa6c713f4007ea93835c5d4e1873387f31b20be561c27bcc2d05e376a08491514c23939a66b7440d15208f07536b062f78d95059d85111ab8a433c88717d37f00dd33466e7ee52fdab6450fe338e7a5cfb8128abab256b74a0bb3e8c84504f6670e4596c4e41485fab2e6b95738d505996d69cb47647792349fce04710aa388d64f022ab3b641a72d68e8a2fa568de97762c10f3cfc45a5462ad3906a5035f8646ad8f5da75d1211c897ad05ea949eddd2ea977439da918a8442239ff95b91be4fcc2c335c58fa09e88ecf3f4e7808abb3850cfee5a3cf640b7cf03728551f3cf2e996394981a915eade4a92b9a496c0566d659c88d229fa30083ad9081df38457e01a7a537a400e42b7aee0d82e5b983988d52742ce3bfdfd3d99fb973263670f550b563a468ba961120f52e521d40cedb5e55c85005261a88e723de07bbab487ffa02b43aa53659456d4e1075c0ca9a9657e222175d259a6c69af6f78c9ce8d9424b7a0d51d19b9aaaacdac37b1e2c82f29fe45ec450a33820ae61a4e918aa477b089b0e1a4e610d8a83f88c4787126636482231ec84724d71c8bd2da28e7d882351321c740ab8f09c7a2a588e790abc2bc3aeead30c46748c16f4d09f023e6f431530ad0e899c534117ea45c73cab80b00156c8d80918aec580e71e8ee290072feaf04fa4a91306ac2593d65a2c78d2e9064fb19c11afb2215dba29c1af6aa6b84aa7f5a7efcc35d4391fb67c127f6b0675c11b1b12927ca606aef333e12c111e6ca6d84f698705baae9ff67166491e463eef244eb8f7bc5e7ff342d5efa420ce91405fa31009cc31a068f360cf3c2a791cd712044dbf31c99dd9344d0378182392294735bc43131c64ee88f6e3cdfacaaeb2dbdd8f2d6a09d64a80efd3d7e9bd6eb623c1ed4c925b8a32a3c35546865e45b2945f32c3b450da840c7cde049f28f492257953e6d3a18d9c792bfc5b12b0ef8b5ea29c3e79ccd2b1761851fa57e827bce44d20a211874a916e04a47fb7bf632af842a04d6a9020fe716667bb70c223dc1c49651548a41120582b7914a6f4aed7981c8b63f0444ee0226d3880766bac7e63c52fc1293200fc5a76d4b4b3746ca9a55b4437fd79d5e561eb67e573055c9fa901f32e3f03e61bb15cb954928ff81f50c833243b66e09e0e8f5763d6bd6252b8f346d7cab30537a4394fc2778121f2b2e99b8afd9a5250729aebe47019432c2ba2cab343cc8e6b8fcbaa2a5ad9a3a3758905422cb9ae247661f20a7c08f58be7b5f11de6071967591ce438f3b48962918c20d13cc80fd302bbf26dd8edb85f0131fc7cea13f4de034141c59b3a56191ca16a3d2dfa9bd0a4c8450a70ce7e6d80dfaebd8029a9117091584a920403f1b47de3b7ac07fc3ccc66745ada57f5577153bc869be1590041951e7f26ef2f500663b09105e206cd3c774a28df393d618fab6a051fa07c4ca9ae63a8cb0fa68ba8e8a73f709dbf2754a34451ed4c74f8c7d74f959617f79c45ae00fc1d4bca8432ba9fe1c6f70453d4e49370b9b8184b5df63c7abb484163108fd58bc50ef24add6706326f40d6a21cb0a61277398f121208a4863a71cfc46acbbf8d89616629df874813002bd6e513288a03ddef8aec94c4444a4376fc1d87cd252aeb06cd2827e7c673e1ec61ecbeb518113d8cfd5c990c074b3c887695b643540b1e4cc1da6171e1af76b4afcf157cf7e69be4a81e9fbec0da8f43bd8cf920ed1e278c6425b92b2a286d6be45a19d53a87e0b8c7ace22156ad1264c5fd7971baaa2cacf1f8eb499c74fa75de6b90b0237f97bd78cd2558e86bc6606c2a8bbcbb4dd2213b5388f0e091eb049ff067cf6ba322656dcba39a10d5905c4aad6a271b599b10bf378037494a7685adccdc293582ddf42a545784c0e832456c8ec9cee1e7e9141b6296d320224782b0c1caec01083e508396dbde47789beefe000000000000000000000000000000000000000000080d131c21293136',
};
const type0x2SignedTransactionInfo = {
	raw: '0x02f8db820539808252088252088252089400000000000000000000000000000000000000000180f872f85994de0b295669a9fd93d5f28d9ec85e40f4cb697baef842a00000000000000000000000000000000000000000000000000000000000000003a00000000000000000000000000000000000000000000000000000000000000007d694bb9bc244d798123fde783fcc1c72d3bb8c189413c080a0b2c321d81024278c17476072d576450a415179e355a247bab30f24052210f20ea066878fda7e04c5993c80cab324456a3c90ad0f8953fe2e64c91255f75ba2b540',
	tx: signedType0x2Transaction as TransactionSignedAPI,
};

export const returnFormat = { number: FMT_NUMBER.STR, bytes: FMT_BYTES.UINT8ARRAY };

/**
 * Array consists of:
 * - Test title
 * - Input parameters:
 *     - transaction
 * 	   - SignedTransactionInfoAPI or HexStringBytes (i.e. SignedTransactionInfoAPI.raw)
 *     - Formatted SignedTransactionInfoAPI
 */
type TestData = [
	string,
	[Transaction, SignedTransactionInfoAPI | HexStringBytes, SignedTransactionInfoAPI],
];
export const testData: TestData[] = [	
	[
		JSON.stringify(rawType0x2Transaction),
		[
			rawType0x2Transaction,
			type0x2SignedTransactionInfo,
			decodeSignedTransaction(type0x2SignedTransactionInfo.raw, returnFormat, {
				fillInputAndData: true,
			}),
		],
	],
	[
		JSON.stringify(rawType0x2Transaction),
		[
			rawType0x2Transaction,
			type0x2SignedTransactionInfo.raw,
			decodeSignedTransaction(type0x2SignedTransactionInfo.raw, returnFormat, {
				fillInputAndData: true,
			}),
		],
	],
];
